:100000000C94D1060C9409070C9409070C94090769
:100010000C9409070C9409070C9409070C94090720
:100020000C9409070C9409070C9422110C94D41514
:100030000C9450200C9409070C9409070C940907A0
:100040000C9409070C9409070C9409070C940907F0
:100050000C9409070C94FB110C9409070C940907E4
:100060000C9409070C9409070C9409070C940907D0
:100070000C9409070C9409070C9409070C940907C0
:100080000C9409070C9409070C9409070C940907B0
:100090000C9409070C9409070C9409070C940907A0
:1000A0000C9409070C9409070C940907AB003A80DB
:1000B0000140022004100408020401020304013874
:1000C0000140018001002E800300311C01E201018A
:1000D00002020401010004800200098001000130D5
:1000E000020001C001C102C2010401080110012087
:1000F0000140018001000380044004200410040832
:10010000050405020401040033800170010C0103A1
:100110000100070C030D01010100014001A00121B4
:10012000012201120111030901080404020802104E
:100130000511010F01010200368005400520051060
:10014000050805040502010301020201060202047A
:100150000208050701003DA9003A80014002200481
:100160001005080204030801300140018001002E3F
:1001700080030031180164018201020501010004BD
:10018000800200098001000130020001C001C102AB
:10019000C201040108011001200140018001000397
:1001A000800440042004100408050405020401042E
:1001B0000033C00138010401030100070C030D01E5
:1001C000010100014001A0012101220112011103DE
:1001D0000901080404020802100511010F010102BF
:1001E00000368005400520051005080504050201BC
:1001F0000301020201060202040208050701003D94
:10020000A5003B8002400420041001080104010203
:10021000020401180160018001002F800300313CBD
:1002200001C2010102020204020201010100106088
:1002300002000181018202840108011001200140B5
:100240000180010004800440042004100408050417
:100250000502040104003380017001190106010048
:100260000718031B01030100014001A00122012422
:1002700001140112030B0108040502090210051103
:10028000010F010102003680054005200510050818
:10029000050405020103010202010602020402082C
:1002A000050701003DB500338002000580014002D2
:1002B00020041004080104010201010202010C01E2
:1002C000300140018001002E800300311E01E10158
:1002D0000002010202020101000480020009800103
:1002E000000130020001C001C102C2010401080185
:1002F000100120014001800100038004400420041B
:100300001004080504050204010400338001700193
:100310000C01030100070C030D0101010001400164
:10032000A0012101220112011103090108040402A4
:100330000802100511010F01010200368005400579
:10034000200510050805040502010301020201064B
:100350000202040208050701003DB50033800200D7
:10036000058001400220041004080104010201017B
:100370000202010C01300140018001002E800300C7
:10038000311E01E1010002010202020101000480AC
:1003900002000980010001300200020101E1011A9E
:1003A00001060109013101350101018A017C0100C9
:1003B000028004400420041004080504050204011E
:1003C000040033800170010C010301000A010200E6
:1003D000014001A0012101220112011103090108BC
:1003E00004040602030104003680054005200510C0
:1003F0000508050405020103017A02790439013177
:1004000001020204020803880287018001003CDD2A
:10041000003380020005800140022004100408011E
:1004200004010201010202010C01300140018001BE
:100430000007F80400058002001C800300311E0143
:10044000E101000201020202810180020002800239
:1004500000098001000130020002010202010401D2
:10046000080110012001430187010701010100017A
:10047000B801BC01BE019F015F024F014C01200485
:100480001004080504050204010400338001700112
:100490000C010301000218010601050198019901F0
:1004A000840143017C01410240022001210122011B
:1004B00012011103090108040402080210051101C8
:1004C0000F0101013D017C01FC053C010C01002EE6
:1004D00080054005200510050805040502010301FB
:1004E000020201060024010103020020B50033804E
:1004F00002000580014002200410040801040102EA
:1005000001010202010C01300140018001002E8036
:100510000300311E01E1010002010202028101809B
:100520000200028002000980010001300200020185
:1005300001E1011A01060109013101350101018AB8
:10054000017C01000280044004200410040805041A
:1005500005020401040033800170010C0103010055
:1005600002180106010501980199018401C3017C6B
:10057000014102400220012101220112011103095F
:10058000010804040602030104003680054005202A
:100590000510050805040502010301020201060019
:1005A00047290014001A000800150017001C001845
:1005B000000C00120013002A002B00040016000794
:1005C0000009000A000B000D000E000F00000028BB
:1005D00000E10000001D001B0006001900050011CD
:1005E000001000360037003800E000E3000000E2B1
:1005F0000001510000025100002C00AE00AA00A929
:100600000035001E001F00200021002200230024CE
:10061000002500260027004C000100010001000118
:10062000000100010001000100330034000000015E
:1006300000010000000100010001000100010001B3
:100640000001000100520001000100010000000152
:100650000001000000010000000100500051004FA7
:10066000003A003B003C003D003E003F004000419E
:100670000042004300440045000100010001000168
:100680000001000100010001002F003000000031D6
:100690000001000000010001000100010001000153
:1006A0000001000100010001000100010000000143
:1006B000000100000001000000A75DA800AC00AB35
:1006C0000000DA0281FFD9F1DB20A4A62EAF00A042
:1006D000C000A1C800AED580A81FD300408D142053
:1006E00000CDCE00C5C600C7C800C9CA00CBCC002B
:1006F000C0C1C2C3C4008F902000AFB02000868765
:100700008800A6A7A8008D8E2000ADAE20008485AD
:100710008800A4A5A8008B8C2000ABAC20008283AD
:100720008800A2A3A800898A2000A9AA20008081AD
:100730008800A0A1A80057504D3A0000AF00AE05B8
:10074000010902A10185020901A100050919012978
:100750000815002501950875018102050109300978
:10076000311581257F950275088106093815812587
:100770007F950175088106050C0A38021581257FD1
:10078000950175088106C0C005010980A101850396
:1007900019012AB700150126B700950175108100CF
:1007A000C0050C0901A101850419012AA002150147
:1007B00026A002950175108100C005010906A1015E
:1007C000050719E029E71500250195087501810243
:1007D0009501750881010507190029FF150026FFFD
:1007E000009506750881000508190129059505750C
:1007F000019102950175039101C009023B000201BC
:1008000000A0FA09040000010301010009211101FF
:1008100000012240000705810308000109040100CE
:100820000103000000092111010001227B000705DE
:1008300082032000011201000200000008EDFE000A
:10084000000100010200010A0364006F003400335C
:10085000000000080371006D006B00000004030934
:10086000040000000000003E5B4F5B3E003E6B4F0B
:100870006B3E001C3E7C3E1C00183C7E3C18001C5D
:10088000577D571C001C5E7F5E1C0000183C180042
:1008900000FFE7C3E7FF00001824180000FFE7DBB4
:1008A000E7FF0030483A060E002629792926004045
:1008B0007F05050700407F05253F005A3CE73C5A6D
:1008C000007F3E1C1C0800081C1C3E7F0014227F79
:1008D0002214005F5F005F5F0006097F017F000058
:1008E0006689956A0060606060600094A2FFA294CF
:1008F0000008047E04080010207E20100008082A4A
:100900001C0800081C2A0808001E10101010000CFB
:100910001E0C1E0C0030383E383000060E3E0E060F
:100920000000000000000000005F00000000070061
:10093000070000147F147F1400242A7F2A1200234A
:10094000130864620036495620500000080703006F
:1009500000001C224100000041221C00002A1C7FD4
:100960001C2A0008083E08080000807030000008BB
:100970000808080800000060600000201008040259
:10098000003E5149453E0000427F40000072494907
:100990004946002141494D33001814127F100027A9
:1009A00045454539003C4A49493100412111090773
:1009B00000364949493600464949291E00000014BD
:1009C0000000000040340000000008142241001420
:1009D00014141414000041221408000201590906DD
:1009E000003E415D594E007C1211127C007F494946
:1009F0004936003E41414122007F4141413E007F56
:100A000049494941007F09090901003E41415173AB
:100A1000007F0808087F0000417F4100002040411E
:100A20003F01007F08142241007F40404040007F8A
:100A3000021C027F007F0408107F003E4141413EBE
:100A4000007F09090906003E4151215E007F091916
:100A500029460026494949320003017F0103003F2E
:100A60004040403F001F2040201F003F4038403F93
:100A700000631408146300030478040300615949F7
:100A80004D4300007F414141000204081020000056
:100A90004141417F000402010204004040404040C7
:100AA000000003070800002054547840007F2844C9
:100AB000443800384444442800384444287F0038EF
:100AC000545454180000087E09020018A4A49C780D
:100AD000007F080404780000447D4000002040406E
:100AE0003D00007F102844000000417F4000007C52
:100AF00004780478007C08040478003844444438BE
:100B000000FC182424180018242418FC007C080475
:100B100004080048545454240004043F4424003C76
:100B20004040207C001C2040201C003C4030403CC9
:100B3000004428102844004C9090907C0044645459
:100B40004C4400000836410000000077000000001F
:100B500041360800000201020402003C2623263C24
:100B600000FEFFFFBF9F0F07070F9FBFFFFEFFFFA6
:100B70007F3F9FCFCF9F3F7FFFFEFFEFEFEFDFBFB6
:100B80007FFFEFEFEFFEFFFFEFD70FDFDF0FD7EFB6
:100B9000FFFFFE000000000000004060F0F8F8F0E9
:100BA00060400000000080C060303060C080000005
:100BB00000101010204080001010100000001028BD
:100BC000F02020F0281000000000000000000000CD
:100BD0000000000000000000000000000000000015
:100BE0000000000000000000000000000000000005
:100BF00000000000000000000000000000000000F5
:100C000000000000000000000000000000000000E4
:100C100000000000000000000000000000000000D4
:100C2000001F3F3F3F3F383838383F3F3F1F3F3C72
:100C30003E3F3F3F3F3F3F3E3C1F3F3F3F3F3F3FE9
:100C40003F3E3D3D3D1F3F3F3D3A3C3E3E3C3A3DF1
:100C50003F3F1F00000000000000000007070707DB
:100C6000000000000003010000000000000103007C
:100C70000000000000000001020202000000020566
:100C80000301010305020000000000000000000055
:100C90000000000000000000000000000000000054
:100CA0000000000000000000000000000000000044
:100CB0000000000000000000000000000000000034
:100CC0000000000000000000000000000000000024
:100CD0000000000000000000000000000000000014
:100CE00000FE8080808000F8242224F8000608F0AE
:100CF000080600FE9292928200FE1232528C000090
:100D00000000FEFF835D6D7583FFFE000000FEFFA7
:100D1000FF7B017FFFFFFE000000FEFF1B6D6D6D7E
:100D200073FFFE000000FEFFBD7D6D6599FFFE00B4
:100D300000000001010101010101000000000000AC
:100D400000000000000000000000000000000000A3
:100D50000000000000000000000000000000000093
:100D60000000000000000000000000000000000083
:100D70000000000000000000000000000000000073
:100D80000000000000000000000000000000000063
:100D90000000000000000000000000000000000053
:100DA000000011241FBECFEFDAE0DEBFCDBF04B6D6
:100DB00003FE18C08091B1049091B204A091B304D5
:100DC000B091B4048730904BA740B04B59F41092C7
:100DD000B1041092B2041092B3041092B404E0E093
:100DE000F8E3099511E0A0E0B1E0ECE7F1E502C01D
:100DF00005900D92AC36B107D9F724E0ACE6B1E02E
:100E000001C01D92A13BB207E1F70E9477200C942C
:100E1000A6280C940000E8EDF0E080818E7F8083AE
:100E20001092E2001092DA001092E100A0EEB0E021
:100E30008C9181608C9380818F77808319BCA7ED22
:100E4000B0E08C918E7F8C9380818F7E8083109216
:100E50008C0208952091E4003091E50095E6A90107
:100E60002091EC00822F817020FF06C08091E80065
:100E700080FF06C080E008952091E80022FD1AC09E
:100E800080919902882389F0853089F08091EB0068
:100E900085FD0FC02091E4003091E5004217530713
:100EA000F9F29150E1F684E0089582E0089583E03C
:100EB000089581E00895EF92FF920F931F93CF93CF
:100EC0007C018B010E942A07C82F811117C08091D5
:100ED000E80085FD0BC08091E8008E778093E800E4
:100EE0000E942A07882399F3C82F08C0F70181912F
:100EF0007F018093F1000150110949F78C2FCF91A8
:100F00001F910F91FF90EF90089580919B0287FFB2
:100F100013C08091E80082FF06C08091E8008B77C3
:100F20008093E80004C0809199028111F2CF089566
:100F3000809199028823D9F38091E80080FFF8CF4F
:100F40008091E8008E77ECCF982F9093E900242FC2
:100F5000762F50E0891731F07091EC002091ED0070
:100F60005091F00021FD07C09F5F973071F780938B
:100F7000E90081E008953091EB003E7F3093EB0073
:100F80003091ED003D7F3093ED003091EB0031600A
:100F90003093EB007093EC002093ED005093F00041
:100FA0002091EE0027FDE0CF80E00895CF92DF9200
:100FB000EF92FF920F931F93CF93DF93C8EDD0E092
:100FC00088818F7E8883E7EDF0E080818160808377
:100FD00084E082BF81E080938C0288818E7F888349
:100FE00002EE10E0F80110821092DA0081EEC82EB5
:100FF000D12CF601108288818F7788838881806860
:10100000888388818F7D888319BC10929902109201
:101010009A02109298021092970290EEE92EF12C0B
:10102000F70180818B7F808388818160888342E0A3
:1010300060E080E00E94A407F60180818E7F8083BB
:10104000F801808181608083808188608083F701DE
:1010500080818E7F8083888180618883DF91CF91BA
:101060001F910F91FF90EF90DF90CF900895FC01BA
:101070008091A1029091A20286179707A0F06115B6
:10108000710529F49091E8009E779093E80090E034
:101090006115710551F4911108C08091E80082FF3B
:1010A00034C080E00895BC01F2CF8091990288237A
:1010B000C1F18530C1F18091E80083FD30C080919D
:1010C000E80082FDEACF8091E80080FFE1CF8091C7
:1010D000F3002091F200382F6115710519F02830C6
:1010E000310558F091E02830310509F090E0209169
:1010F000E8002E772093E800CBCF81918093F10018
:10110000615071092F5F3F4FE7CF8091990288238B
:1011100041F0853041F08091E80083FFBECF81E04F
:10112000089582E0089583E00895089580918E02E5
:1011300008952FB7F894609185027091860280918E
:101140008702909188022FBF0895209182023091EA
:1011500083022817390771F09093830280938202EB
:10116000E0918002F0918102309721F00084F185B6
:10117000E02D0994089520917E0230917F02281776
:10118000390771F090937F0280937E02E091800294
:10119000F0918102309721F00680F781E02D0994CB
:1011A0000895E0918002F0918102309721F0019042
:1011B000F081E02D099480E008953091A602831714
:1011C000A0F590E0262F269526952695239F800D45
:1011D000911D1124811522E092073CF5FC01E75591
:1011E000FD4F5081677021E030E001C0220F6A9509
:1011F000EAF74423D9F0252B2517B9F0208325E001
:10120000969587952A95E1F721E030E002C0220FFC
:10121000331F8A95E2F78091A7029091A802822B52
:10122000932B9093A8028093A702089520952523DD
:10123000E3CF8F929F92AF92BF92CF92DF92EF92C5
:10124000FF920F931F93CF93DF93C82FD62F142FA6
:10125000802E422F461B550B6A0157FF03C0D194C5
:10126000C194D108812F8C1B990B5C0197FF03C09F
:10127000B194A194B108AC14BD0434F4812F122FA1
:10128000282F8C2FCD2FD82F1C1730F48D2FD22F35
:10129000282F8C2FC12F182F912E9C1A422F4D1BB7
:1012A000550BCA0157FF03C0919581959109F82EFE
:1012B000E92CE6940FEFD21790F401E010C0482D0E
:1012C0006C2F8D2FAC14BD0414F06D2F8C2F0E9449
:1012D000DD08EF18E7FE02C0D00FE90CCF5FC117A1
:1012E00070F3DF91CF911F910F91FF90EF90DF90FE
:1012F000CF90BF90AF909F908F9008952091A602BD
:1013000036E0839FC0011124629F800D911D11243E
:10131000811522E0920714F090E080E087559D4F00
:101320009093B0048093AF040895409174028D3E71
:1013300059F48091750287FF0DC01092750241111A
:101340000BC010926C0208C08E3E81F48091750231
:1013500018169CF3442381F08091760290917702D5
:10136000892B09F05AC010926B0208958F3E49F400
:1013700047FFF0CF10927402809175028111ECCF7B
:10138000E0CF803F19F41416ACF3E4CF90917602CD
:10139000893F29F41916F4F610927602DBCF8A3FC2
:1013A00019F497FFD7CFF8CF909177028B3F29F4AC
:1013B00097FFD0CF10927702CDCF8C3F19F419163A
:1013C000CCF3C8CF9FE0980F983090F4815F990BD1
:1013D00021E030E0B90102C0660F771F8A95E2F77D
:1013E000CB01809590917302892380937302B2CFD1
:1013F0008D3F31F480916D028E7F80936D02AACF74
:101400008E3F21F480916D028D7FF7CF8F3F09F0E1
:10141000A1CF80916D028B7FF0CF089580916D02F6
:1014200080FD16C081FD16C082FD16C080916B0242
:101430008823A1F0883280F428E0829FC001112423
:1014400068E270E00E94D127862F672B39F008955B
:1014500082E0089584E0089588E0089581E0089589
:1014600080916D0280FD14C081FD14C082FD16C004
:1014700080916C02882381F08E3180F420E5829F78
:10148000C00111246EE170E00E94D127862F0895DB
:1014900084E1089588E2089588E0089580E508953C
:1014A0008D3E31F40E94300A819580937502089533
:1014B0008E3E19F40E94300AF8CF8F3E31F40E941C
:1014C000300A8195809374020895803F19F40E9438
:1014D000300AF8CF893F29F40E940E0A80937602E1
:1014E00008958A3F21F40E940E0A8195F7CF8B3F21
:1014F00031F40E940E0A81958093770208958C3F03
:1015000019F40E940E0AF8CF9FE0980F983070F4FB
:10151000815F990B21E030E001C0220F8A95EAF744
:1015200080917302822B8093730208958D3F31F472
:1015300080916D02816080936D0208958E3F21F449
:1015400080916D028260F7CF8F3FB9F780916D0275
:101550008460F1CF80E00895F894E82FE295EF7071
:10156000F0E031A1282F2F7081E090E001C0880FBA
:101570002A95EAF7982F9095932391A392A1892B0E
:1015800082A3789408959091E90192FF06C0282FD4
:1015900028712830F9F4877F846093FF06C0282FD4
:1015A00028712831F1F4877E84612091EA0120FFBF
:1015B00006C0382F38713830D9F4877F816021FF19
:1015C00006C0282F28712831D1F4877E816194FDCF
:1015D000877E0895282F24712430F9F68B7F886048
:1015E000DCCF282F2471243101F78B7E8861DDCF79
:1015F000382F3171313019F78E7F8860E0CF282F76
:101600002171213121F78E7E8861E1CFCF93DF9365
:10161000EC0182389105A9F1D8F58133910509F4DF
:1016200096C048F58932910509F48AC08A9709F471
:1016300095C0C11521E5D20708F0BCC0C11530E541
:10164000D30708F014C1C83ED10508F09CC0C13EC4
:10165000D10560F5C83AD10508F087C0C53AD10573
:1016600008F0FDC0C130D10509F12097F9F0C43070
:10167000D105E0F440C08533910509F45AC0C997FB
:10168000C1F68091E901837089F0C0EED0E00EC010
:10169000833E910599F170F4803E910501F1823EFF
:1016A000910539F68091E90182FD21C0CE01DF91DB
:1016B000CF910895863E910561F1873E910571F1C4
:1016C000843E910509F0B5CF8091EA0181FFEECF0C
:1016D0008091E901C7EED0E084FD0DC0E7CF809195
:1016E000E90180FD12C19091EA0190FFDFCFC3EEC6
:1016F000D0E084FFDBCFD0E0C0E0D8CF8091E9011B
:1017000082FD06C19091EA0190FDBFCF84FFCECF4C
:10171000F2CF8091E90183FDDDCFC8CF8091E9014F
:1017200083FDF9C09091EA0191FFF0CFC4EED0E0C3
:10173000BDCF8091E90185FFB9CFC9E2D0E0B6CF36
:101740008091E90185FFB2CFC5E3D0E0AFCF8091B2
:10175000E90186FFABCFCAE2D0E0A8CF8091E901D2
:1017600086FFA4CFC1E3D0E0A1CFCF3BD10518F6CF
:10177000C85AD0E0CC0FDD1FCA5DDE4F0990D8817A
:10178000C02DD46493CFC11540E2D40758F4C115DD
:1017900081E0D80708F08ACFCD3ED10508F4ABCF61
:1017A000D06584CFC11590E4D90708F4A4CFDF70C9
:1017B000D06A7CCFC11525E5D20700F5C11534E507
:1017C000D30708F08AC0C11543E5D40708F071C0FB
:1017D000C11582E5D80708F467C0CE018370992748
:1017E00021E030E002C0220F331F8A95E2F7C69550
:1017F000C69580E2C89FE001112452C0C11599E549
:10180000D907A8F4C11528E5D20708F06BC0C115A7
:1018100036E5D30708F06FCF8C2F0E94C30AC82F7C
:10182000D0E0DC2FCC27CC27DF71D0623FCFC115B1
:101830004AE5D40708F45BC0CE019056811590426A
:1018400008F059CF8D2F8F710E94C30A90E0982F16
:10185000882788279F719C012C2BE901E6CFC55A68
:10186000D0E0CD5DDE4FC881D0E0D0641FCFCE0187
:10187000E4E096958795EA95E1F783702C2F2695FD
:101880002695237040E2249F90011124382B8C2F41
:101890008370C1E0D0E002C0CC0FDD1F8A95E2F773
:1018A000C22BD32BDC6802CFDC2FCC27C16FD06AD0
:1018B000FDCECE018370992721E030E002C0220FD7
:1018C000331F8A95E2F7C695C69590E2C99FE0015D
:1018D0001124C22BD32BDA68E9CEDC2FCC27C46FBE
:1018E000D06AE4CEDC2FCC27C06FD06ADFCE8C2F3D
:1018F0008F700E94C30A34E0D695C7953A95E1F7F8
:10190000CF709C2FEC01D069D1CEC9E3D0E0CECE10
:10191000C2EED0E0CBCEC6EED0E0C8CE8091D901E9
:1019200081111092D90108958095909135029823E4
:10193000909335020895E0E7F1E09191891303C097
:10194000DF0111971C9291E0E637F907B1F708958E
:10195000A0E7B1E0EFEF90E02D91821751F0EF3F5B
:1019600019F4211101C0E92F9F5F9630A9F7EF3FCD
:1019700009F408950E2E000CFF0BE259FE4F8283EE
:1019800008952091CE0190919D0156E0291302C047
:1019900080E0089530E0529FF001539FF00D112434
:1019A000E256FE4F7181761306C07081781303C032
:1019B0007281741304C02F5F3F4F2770E7CF81E01F
:1019C00008958091CE0190919D01981301C00895D2
:1019D0008F5F8770FACFAF92BF92CF92DF92EF9274
:1019E000FF920F931F93CF93DF93C0903102D0905B
:1019F0003202E0903302F09034024091DA015091CB
:101A0000DB016091DC017091DD01C42AD52AE62A50
:101A1000F72ACFE1D0E0082F10E02CE0929F000DD4
:101A2000111D112490E3A92EBC2ED701C6010C2E46
:101A300004C0B695A795979587950A94D2F780FD2F
:101A40000FC0219788F7B12C8B2DDF91CF911F917B
:101A50000F91FF90EF90DF90CF90BF90AF900895DF
:101A6000AC9EF001AD9EF00D1124E00FF11FEE0FC2
:101A7000FF1FEF55FA4F859194910E94060B019735
:101A800001F3E2CFCF93DF93EC010E94EB0CEC2F3C
:101A9000F0E09CE0D99FE00DF11D112490E3899FB7
:101AA000E00DF11D1124EE0FFF1FEF55FA4F859148
:101AB0009491DF91CF910C94060B2CE0929F800DB6
:101AC0001124982F977086958695869525E0829F9C
:101AD000F0011124E758FE4F50E040E080E02191F2
:101AE00030E0092E02C0369527950A94E2F721705E
:101AF0003327042E01C0220F0A94EAF7822B4F5F8E
:101B00005F4F4530510559F708952CE0929F800DA5
:101B10001124982F977041E001C0440F9A95EAF77D
:101B200086958695869595E0899FF0011124E75862
:101B3000FE4F90E080E070E05191DF0111979B0132
:101B4000082E02C0369527950A94E2F72170219558
:101B50002527242325272C9301968530910561F7AD
:101B60000895FC01808191810E94420D92959F70A1
:101B7000963091F058F4925F9F70923058F4803F05
:101B800019F030F4883E30F481E008959A5FF4CF84
:101B9000843FD1F380E00895883EB0F3813FD1F7D0
:101BA000F3CFAF92BF92CF92DF92EF92FF920F935B
:101BB0001F93CF93DF93EC01FC01149160E080E070
:101BC0000E947E094091A7025091A802EE24E3945E
:101BD00030E020E0812F8150990BBC01A1E0B0E002
:101BE0008E2D90E0861797077CF05093A8024093C3
:101BF000A702DF91CF911F910F91FF90EF90DF909F
:101C0000CF90BF90AF900895FE01E80FF91FF490B8
:101C1000FC013196EC0FFD1FB490C901F82FF21BA7
:101C2000FB1528F02B0D311DE394E394D9CF8C01E3
:101C30008130E2E09E0710F000E012E0F801E75585
:101C4000FD4FA080FA1479F0F082E5E01695079533
:101C5000EA95E1F7FD0102C0EE0FFF1F0A95E2F7DA
:101C60008F014E2B512B0196D9CF809146028F3197
:101C7000A8F4E0917601E43058F4EF5FE093760148
:101C8000F0E0EE0FFF1FEB5EFE4F8081918104C0FC
:101C9000E0E0F4CF8CEE94E00C94D10D8634D0F3D8
:101CA000E0917701EF5FE170E0937701F0E0EE0FF4
:101CB000FF1FE15EFE4FE9CFCF92DF92EF92FF92DE
:101CC0000F931F93CF93DF936C017B0164E670E069
:101CD00088E70E94B026EC0197FD12C010E000E0FA
:101CE000F601E00FF11F849164E670E00E942A275C
:101CF000EC01892B29F40F5F1F4F0E151F0581F78B
:101D00000E94AD27CE01DF91CF911F910F91FF90DF
:101D1000EF90DF90CF90089580917C0290917D02AA
:101D2000911103C091E089270895882369F062E04A
:101D300070E08DE397E00E945C0E892B19F0809192
:101D40007C02089510927C0280917C02EBCFCF93AD
:101D5000C0917C0280917D028823D1F00E94990875
:101D6000605A75418F4F9F4F60937802709379024C
:101D700080937A0290937B02C11108C062E070E008
:101D80008BE397E00E945C0E892B29F0C0917C02C6
:101D90008C2FCF91089581E080937C02F7CFE9EA00
:101DA000F2E080E092E0DF019C011D922150304082
:101DB000E1F7F093B004E093AF048FEF9FEF9093BF
:101DC000A8028093A7020895CF93DF93C091AF0438
:101DD000D091B0048A30C1F42091A602CE01895A74
:101DE0009240622F70E00E94B127281B822F66E08C
:101DF0000E94C527C82FC15018F4DF91CF910895D4
:101E000080E20E94E40EF7CF8D30E9F4C95AD24047
:101E10002091A602622F70E0CE010E94B127281BFC
:101E2000822F9E01280F311D2115324018F080E0CD
:101E3000D0E0C0E0C80FD11DC755DD4FD093B0042E
:101E4000C093AF04DACF96E0FE01A9EAB4E00190B6
:101E50000D929A95E1F7803E08F458C086E0FE01A5
:101E600011928A95E9F7C091AF04D091B00446E091
:101E700050E0BE0189EA94E00E9457289E01295A49
:101E80003240892B41F1C90145E0969587954A95E5
:101E9000E1F741E050E0BA0102C0660F771F8A9572
:101EA000E2F7CB016091A7027091A802862B972BD5
:101EB000B9016B5F7F4FE5E076956795EA95E1F7AD
:101EC00002C0440F551F6A95E2F7842B952B90931F
:101ED000A8028093A7022A5F3F4F4091A602642F79
:101EE00070E0C9010E94B127481B463010F4240F4E
:101EF000311D211572E0370710F030E020E0275542
:101F00003D4F3093B0042093AF0477CFF6E08F9F1E
:101F1000B00111246F59774F46E050E0CE010E9486
:101F20004E28A1CFCF93DF93EC01FE018491811164
:101F300003C0DF91CF9108950E94E40E2196F5CF62
:101F40001F93CF93DF93182FEB0162E00E947E096D
:101F5000CE010E94920F63E0812F0E947E09CE0184
:101F60000496DF91CF911F910C94920F80913502CE
:101F70009091D801892B80936E019091D90199237A
:101F800091F0892B80936E0120E080E791E0FC01C5
:101F90003191CF0131112F5FF1E086379F07B9F7FB
:101FA00021110E948E0C48E050E060ED71E08EE659
:101FB00091E00E945728892BA9F088E0EEE6F1E035
:101FC000A0EDB1E001900D928A95E1F7E0918002D9
:101FD000F0918102309731F00280F381E02D8EE69E
:101FE00091E009940895882321F00E94940C0C94A8
:101FF000B60F0895882339F090913502982B90936D
:1020000035020C94B60F08958093890270938B0269
:1020100060938A0280919902843001F582E0809376
:10202000E9008FEF9091E800815095FD06C095ED95
:102030009A95F1F700008111F5CF8091E80085FFB6
:102040000DC050E040E063E070E089E892E00E945B
:102050005B078091E8008E778093E8000895BC01CB
:1020600084E00C940410BC0183E00C9404109C01E7
:1020700082E08093E9009FEF8091E800915085FD18
:1020800006C085ED8A95F1F700009111F5CF80919A
:10209000E80085FF0CC050E040E066E070E0C90158
:1020A0000E945B078091E8008E778093E800089596
:1020B000CF93DF93EC0181E08093E9008FEF909163
:1020C000E800815095FD06C095ED9A95F1F7000066
:1020D0008111F5CF8091E80085FF14C050E040E009
:1020E00068E070E0CE010E945B078091E8008E7787
:1020F0008093E80088E0FE01AFE8B2E001900D9225
:102100008A95E1F7DF91CF91089581E08093E00017
:1021100080E28093D8001092C9008FE19EE401977D
:10212000F1F700C0000087E090EBDC018093B10480
:102130009093B204A093B304B093B40488E19CE0FC
:102140000FB6F894A895809360000FBE909360003E
:10215000FFCFCF9384E090E00E946428C82F82E2F2
:1021600090E00E946428982F8C2FCF91089569EEFB
:102170007EEF90E080E00E94902860E082E090E0B6
:102180000E94722860E083E090E00E947228109222
:10219000DA011092DB011092DC011092DD0160E0A7
:1021A00084E090E00E94722860E082E290E00E9469
:1021B000722860E085E090E00E94722860E086E08E
:1021C00090E00E9472286FEF87E090E00E947228F2
:1021D00040E050E0BA0188E090E00E94842860E08E
:1021E0008DE090E00E94722840E050E0BA0188E162
:1021F00090E00E94842860E087E190E00E947228CD
:1022000040E050E0BA018CE190E00E94842870E048
:1022100060E080E290E00E94902840E050E0BA0147
:1022200088E190E00E94842840E050E0BA018FE00D
:1022300090E00E94842840E050E0BA0183E190E001
:102240000C9484281F920F920FB60F9211242F9393
:102250003F934F935F936F937F938F939F93AF932E
:10226000BF93EF93FF938091E10082FF09C08091BB
:10227000E20082FF05C08091E1008B7F8093E10046
:102280008091DA0080FF24C08091D80080FF20C0B8
:102290008091DA008E7F8093DA008091D90080FFF0
:1022A0009DC080E189BD82E189BD09B400FEFDCFFA
:1022B00081E08093990280918C02811109C00E9473
:1022C0000B070E94D6078091E20084608093E200B1
:1022D0008091E10080FF17C08091E20080FF13C071
:1022E0008091E2008E7F8093E2008091E200806125
:1022F0008093E2008091D80080628093D80019BC5E
:1023000085E0809399028091E10084FF2BC0809149
:10231000E20084FF27C080E189BD82E189BD89B5E3
:10232000982F917080FFFBCF8091D8008F7D809394
:10233000D8008091E1008F7E8093E1008091E200DF
:102340008F7E8093E2008091E20081608093E200C2
:1023500080919A02882309F447C084E0809399020F
:10236000809199028091E10083FF27C08091E20073
:1023700083FF23C08091E100877F8093E10082E0AA
:102380008093990210929A028091E1008E7F80934F
:10239000E1008091E2008E7F8093E2008091E20074
:1023A00080618093E20042E060E080E00E94A40748
:1023B0008091F00088608093F000FF91EF91BF91D1
:1023C000AF919F918F917F916F915F914F913F91CD
:1023D0002F910F900FBE0F901F90189519BC10925F
:1023E000990210928C0274CF8091E30087FD93E0F4
:1023F00090939902B5CF78941F921FB61F92112423
:102400008F939F93AF93BF938091850290918602A3
:10241000A0918702B09188020196A11DB11D809301
:10242000850290938602A0938702B0938802BF91A1
:10243000AF919F918F911F901FBE1F9018959C0187
:102440004FB7F8948091850290918602A0918702FF
:10245000B09188024FBF821B930B08952FB7F89459
:102460008091850290918602A0918702B0918802A6
:102470002FBF08950E942E129C01909174028091AA
:102480007502982B21F03093710220937002909185
:10249000760280917702982B21F030936F0220937F
:1024A0006E02E0918002F0918102309749F082E063
:1024B000809372020480F581E02D82E792E0099416
:1024C000089590E080E00E94BB0890E080E00E94C8
:1024D000A5081092D8010E94B60F86E0E2E7F2E06C
:1024E000DF011D928A95E9F710926C0210926B023F
:1024F00010926D020C943A12609331027093320282
:1025000080933302909334020C9461120F931F93C3
:1025100041E050E060E070E004C0440F551F661FCA
:10252000771F8A95D2F7CB01BA0160957095809597
:102530009095009131021091320220913302309136
:10254000340260237123822393231F910F910C94F3
:102550007C129091CF01809589238093CF01282F01
:10256000277091F4282F082E000C330B92171306B6
:1025700059F09091EA0192FD07C085958595859562
:102580000E9486121092CF010895CF93C091EA0164
:10259000C2FB992790F9981799F080FBC2F9C09374
:1025A000EA016091E90184E090E00E9472286C2FBA
:1025B00082E290E00E94722882E0CF910C94A912EE
:1025C000CF9108950F931F9341E050E060E070E0D9
:1025D00004C0440F551F661F771F8A95D2F780915C
:1025E000310290913202A0913302B09134028A01FB
:1025F0009B01082B192B2A2B3B2BC901B8011F91DA
:102600000F910C947C126093DA017093DB0180933C
:10261000DC019093DD010C94611210923502E0E729
:10262000F1E086E0DF011D928A95E9F70C946112D2
:102630001F93CF93DF93CDB7DEB7AA970FB6F89469
:10264000DEBF0FBECDBF8BE992E02091F100FC010F
:102650002193CF01F2E0833A9F07B9F780919C0262
:10266000833009F470C0B8F4813009F447C0823077
:1026700009F4B1C08091E80083FF7EC280919B0283
:1026800090919C029A3008F077C2E92FF0E0E8556B
:10269000F74D0C9426288A3009F48CC08B3009F44D
:1026A0006FC0893039F780919B02813219F7809190
:1026B0009F029091A0020297E8F68091E800877F40
:1026C0008093E8008091E80082FF38C09091F30089
:1026D0008091F200029731F48091F100813011F085
:1026E000863021F48091F10080938E028091E80081
:1026F0008B778093E8000E948507BCCF80919B0276
:10270000813A09F0B7CF8091E800877F8093E80095
:1027100080919F029091A002892B61F468E08FE87C
:1027200092E070E00E9437088091E8008B778093F8
:10273000E800A0CF60E090E080E0F3CF80919902C4
:102740008111C0CF97CF80919B02813A09F092CF3F
:1027500080919F029091A002892B09F08BCF8091EC
:10276000E800877F8093E8008091E80080FFFCCF3D
:10277000809114018093F1008091E8008E77B9CFA9
:1027800080919B02813209F075CF80919F029091D8
:10279000A002892B09F06ECF8091E800877F80939B
:1027A000E8000E94850780919D02809314010E9499
:1027B0000D1360CF80919B02813209F05BCF809135
:1027C000E800877F8093E8000E94850780919E0241
:1027D00080938D024FCF80919B02813A09F04ACFBE
:1027E0008091E800877F8093E8008091E80080FF77
:1027F000FCCF80918D02BECF803899F0823809F0ED
:10280000BBC180919F028F70873008F0B5C1809363
:10281000E9008091EB0085FB882780F91092E900A0
:1028200006C08091970290919802911182609091D8
:10283000E800977F9093E8008093F1001092F100F8
:102840008091E8008E7794C1882309F482C1823098
:1028500009F092C180919D02811185C180919F02F2
:102860008F702FEF280F263008F086C18093E90083
:102870002091EB0020FF77C1933031F48091EB0081
:1028800080628093EB006FC19091EB009061909318
:10289000EB0021E030E001C0220F8A95EAF7209397
:1028A000EA001092EA008091EB008860EACF811183
:1028B00063C110919D021F778091E3008078812B86
:1028C0008093E3008091E800877F8093E8000E9476
:1028D00085078091E80080FFFCCF8091E30080684D
:1028E0008093E30082E0111183E08093990244C158
:1028F0008058823008F040C180919D0290919E02E4
:102900008C3D23E09207A1F583E08A838AE28983E4
:102910004FB7F894DE01139620E03EE051E2E32F3A
:10292000F0E050935700E49120FF03C0E295EF7070
:102930003F5FEF708E2F90E0EA30C0F0C7968D9326
:102940009D932F5F243159F74FBF8091E800877F17
:102950008093E8006AE270E0CE0101960E94370899
:102960008091E8008B778093E80006C1C096E7CF9E
:1029700040919F025091A002292F33272330310527
:1029800009F444C078F52130310509F46FC08BE3B8
:1029900090E0EAEFF7E02230310509F0EDC0209138
:1029A000E800277F2093E8002091A1023091A20245
:1029B0008217930708F49C0140E02115310509F0C6
:1029C00064C0411162C08091E80082FDC9CF80914E
:1029D0009902882329F2853019F28091E80083FF5B
:1029E000F2CFBECF21323105A9F12232310509F0F3
:1029F000C3C04115510509F443C04130510509F0E8
:102A0000BBC08BE790E0EFE3F7E0C9CF99278130B7
:102A10009105C1F0009759F0029709F0ADC0E7E4C5
:102A2000F8E0E4918E2F90E0E7E4F8E007C0EDE5F0
:102A3000F8E0E4918E2F90E0EDE5F8E0009709F4DE
:102A40009BC0ADCFE3E5F8E0E4918E2F90E0E3E5A5
:102A5000F8E0F4CF4115510571F04130510509F00E
:102A60008BC089E090E0E5E2F8E099CF82E190E068
:102A7000E5E3F8E094CF89E090E0ECE0F8E08FCF78
:102A800080E490E0EAEBF7E08ACF80919902882316
:102A900009F466CF853009F463CF8091E80083FDA7
:102AA0005FCF8091E80082FD8ECF8091E80080FFAB
:102AB00084CF9091F3008091F2002115310519F037
:102AC0008830910550F041E0089709F040E080918E
:102AD000E8008E778093E80070CF44914093F10036
:102AE0003196215031090196E8CF803809F044C071
:102AF0008091E800877F8093E80080919A0280931C
:102B0000F1009ECE811138C010919D021230A0F5C7
:102B10008091E800877F8093E80010939A020E94DA
:102B20008507112311F084E005C08091E30087FD43
:102B3000FACF81E08093990242E061EC81E00E944B
:102B4000A40742E261EC82E00E94A407809199020E
:102B500013C080919D02813079F481E0933009F0B7
:102B600080E0809398021092E9008091E800877FCE
:102B70008093E8000E9485078091E80083FF0AC0E7
:102B80008091E800877F8093E8008091EB0080626D
:102B90008093EB00AA960FB6F894DEBF0FBECDBFB0
:102BA000DF91CF911F9108951F920F920FB60F9250
:102BB00011242F933F934F935F936F937F938F9342
:102BC0009F93AF93BF93CF93DF93EF93FF93D091F6
:102BD000E900DF708091EC00C82FC17080FDC0E873
:102BE0001092E9008091F000877F8093F000789444
:102BF0000E9418131092E9008091F0008860809381
:102C0000F000CD2BCF70C093E900FF91EF91DF91E1
:102C1000CF91BF91AF919F918F917F916F915F9174
:102C20004F913F912F910F900FBE0F901F901895CD
:102C3000882309F452C0823871F40E94D10881FFC0
:102C40004CC089E30E94A80C0E94B60F89E30E9441
:102C50009B0C0C94B60F833859F40E94D10880FF66
:102C60003CC083E50E94A80C0E94B60F83E5EFCF1D
:102C7000843859F40E94D10882FF2FC087E40E9453
:102C8000A80C0E94B60F87E4E2CF9CEF980F913A10
:102C9000F0F290E2980F983050F4877091E001C004
:102CA000990F8A95EAF7892F0E94940CD2CF9BE561
:102CB000980F933020F490E080E00C94BB0898E5E6
:102CC000980F973120F490E080E00C94A5088D3E99
:102CD00020F00E9495090C943A120895CF93C82FC2
:102CE000882309F490C08238C1F40E94D10881FD84
:102CF0008AC089E30E94A80C0E94B60F2FEF81EED4
:102D000094E0215080409040E1F700C0000089E34A
:102D10000E949B0CCF910C94B60F8338A1F40E94B3
:102D2000D10880FD70C083E50E94A80C0E94B60FF8
:102D30002FEF81EE94E0215080409040E1F700C0F9
:102D4000000083E5E5CF8438A1F40E94D10882FD1C
:102D50005AC087E40E94A80C0E94B60F2FEF81EEA4
:102D600094E0215080409040E1F700C0000087E4EB
:102D7000CFCF8CEF8C0F813A68F4E0E7F1E08191DE
:102D8000C817D9F121E0E637F207C9F78C2F0E9466
:102D9000A80CC0CF80E28C0F883068F4C77021E0A7
:102DA00030E001C0220FCA95EAF780913502822BEC
:102DB00080933502AFCFEBE5EC0FE33040F4F0E069
:102DC000ED5DFE4F808190E0CF910C94BB08E8E56B
:102DD000EC0FE73150F4F0E0EE0FFF1FEA5DFE4F1D
:102DE00080819181CF910C94A508CD3E60F08C2F0D
:102DF0000E94500ACF910C943A128C2F0E949B0C87
:102E00000E94B60FC3CFCF9108950F931F93CF9316
:102E1000DF93C62FD42F022FFC0182818823A1F0DB
:102E20006093A5020E942E129093A4028093A302A5
:102E3000C77081E001C0880FCA95EAF7DF91CF9192
:102E40001F910F910C94FA0F8091A502681338C05E
:102E50008091A3029091A4020E941F12883C9105C8
:102E600078F510E21D0FCD17B9F080E28C0F883095
:102E700040F4C77081E001C0880FCA95EAF70E944C
:102E8000F30F183048F481E09D2F977001C0880F30
:102E90009A95EAF70E94FA0F802F0E946E16802FF3
:102EA0000E941816183098F4D77081E001C0880F7E
:102EB000DA95EAF7DF91CF911F910F910C94F30F00
:102EC000C77081E001C0880FCA95EAF7F3CFDF91A0
:102ED000CF911F910F9108954F925F926F927F92C1
:102EE0008F929F92AF92BF92CF92DF92EF92FF921A
:102EF0000F931F93CF93DF9300D000D00F92CDB7E5
:102F0000DEB77C01FC0183819481892B39F010812B
:102F1000D180812F8D218F3F09F0CEC40F900F906B
:102F20000F900F900F90DF91CF911F910F91FF9015
:102F3000EF90DF90CF90BF90AF909F908F907F9059
:102F40006F905F904F9008950E94EB0C082F682FB0
:102F500089819A810E94850DE12FF0E02CE0D29EBC
:102F6000E00DF11D112430E3039FE00DF11D11244C
:102F7000EE0FFF1FEF55FA4F05911491F701828173
:102F8000882309F441C0C80190568115F0E29F07DB
:102F900048F0905E811520E1920720F0915C811548
:102FA0009F4150F5C80199279C01245031092432D2
:102FB000310518F08B970E9780F4E091FA01F0E05C
:102FC000EE0FFF1FE150FE4F808191818F3F2FE771
:102FD000920719F0019691838083073A8DE51807CF
:102FE000B9F40E94CF0E8091470290E00196817063
:102FF00099278093470222C090E080E00F3F11059F
:1030000009F090F6C801D0CF073A3DE51307B1F0BB
:10301000043F8CE5180709F49FC008F05EC0093D25
:10302000ECE51E0709F494C00A3DFCE51F0709F40E
:103030009FC0083D2CE5120709F486C0F701828184
:10304000882309F44AC41092A5020430FDE51F0745
:1030500008F091C00B3F2CE5120730F4C8018250F4
:103060009C45449708F091C00E94A9109093EA01F2
:103070008093E90101319CE5190709F45AC108F070
:10308000D8C00930FCE51F0709F43DC108F0A5C010
:1030900005303CE5130709F42EC108F08BC003305E
:1030A0009CE5190709F41DC108F021C18091E901CF
:1030B000816002301C4509F417C16091E90110914B
:1030C000EA0184E090E00E947228612F82E290E0A1
:1030D0000E9472280E940D1311C0063F3CE51307A1
:1030E00009F442C0E8F127E245EE66EE073F9CE5B1
:1030F000190709F0A3CFC7010E9405178091CF01DE
:10310000877009F40BCFF7018281882309F406CF79
:103110008091EA0182FD02CF82E00F900F900F9024
:103120000F900F90DF91CF911F910F91FF90EF9033
:10313000DF90CF90BF90AF909F908F907F906F90D7
:103140005F904F900C94A91226E241EE61EED3CF2E
:1031500027E245EE65EECFCF26E241EE60EECBCF23
:1031600027E245EE64EEC7CF26E241EE62EEC3CF22
:1031700028E241E0EFCF02363DE5130709F474CFB2
:10318000063A8DE5180709F46FCF06312CE51207D2
:1031900009F0AEC3809135028A7A91E009F490E09B
:1031A000909378018111EFC089E20E94A80C0E94DF
:1031B000B60FA4CF8091E901806207302CE5120799
:1031C00009F492C08091E901806108301C4508F43F
:1031D0008BC08091E901806487C00D308CE51807B1
:1031E00009F49BC098F48091E9018E7F0B30ECE5E7
:1031F0001E0709F479C08091E9018C600C301C45F0
:1032000008F472C08091E9018D7F6EC08091E90160
:103210008F7E0F302CE5120709F466C08091E9011A
:10322000877F00311C4508F45FC08091E9018F7DE4
:103230005BC00E3F8CE5180709F477C050F50531E7
:10324000ECE51E0709F47FC098F48091E901837FC3
:1032500003312CE5120709F447C008F46EC00E9440
:103260000D139091E901892F97FB87F980583CC095
:103270000C3F8CE5180709F442C008F052C0809159
:10328000EA0181600B3F1C4509F017CF8093EA01EA
:1032900014CF0230FDE51F0709F461C090F480915E
:1032A000EA018C7F01153DE5130781F390F18091D0
:1032B000EA01982F909591708E7F892B90FB81F970
:1032C000E5CF02369DE5190709F44FC0063AEDE552
:1032D0001E0709F451C003301D4509F0EECE60E031
:1032E0003FC08091E90182608093E901E6CE809140
:1032F000E9018460F9CF8091E9018860F5CF809180
:10330000EA018260C3CF0E940D138091E9018068B9
:10331000EBCF8091EA018360B9CF8091E9018B7F87
:10332000E3CF8091EA018E7FB1CF8091EA018D7F5A
:10333000ADCF8091E9018F7BD7CF0E940D13809193
:10334000E9018F77D1CF8091E90182FB992790F92C
:1033500021E0922790FB82F990FB83F9C5CF61E0D1
:103360008EE090E00E947228A8CE9091E901892F0A
:103370008F7E94FF8061B8CF9091E901892F8E7F75
:1033800090FF8160B1CF85E310CF85E3AEC20E948C
:103390000D133FEF84E39CE0315080409040E1F713
:1033A00000C000000E94851081E0C2C280E0C0C25F
:1033B000812F902F0E945D0DD82ECDC2212F2F700E
:1033C000C22E107F19F0C29420EFC222DD20B9F086
:1033D000CC2069F080E2800F883010F0811009C0A5
:1033E00080913502C82AC09235020E94B60F802F04
:1033F0004BC08091D801C82AC092D801F6CF802F47
:103400000E941816CC2009F441C0005E083010F06C
:10341000811004C08C2D0E94940C06C0C094809131
:10342000D801C822C092D8010E94B60F2FC0312FF8
:103430003F70C32E107F103219F0C29490EFC92252
:10344000882089F081E0881609F488C0DD2009F41D
:1034500092C0992009F488C0F701858180FFC7CF09
:103460008F70858381C02091EA0122FF54C0DD2046
:1034700009F44AC0CC2039F080913502C82AC092A4
:1034800035020E94B60F80E00E946E16EA2DE850C9
:10349000FF0B349710F40E94D108BB20A9F0809153
:1034A000CF0180FD11C0F701128285958595859524
:1034B0000E94E212C7010E946C178091CF0185958E
:1034C000859585950E94861285E0F701DE011196AB
:1034D00001900D928A95E1F789819A810E945D0D94
:1034E0009A81E981F0E02CE0929FE00DF11D11241A
:1034F00030E3839FE00DF11D1124EE0FFF1FEF5508
:10350000FA4F859194910ACD80E00E941816CC2044
:1035100009F4BCCF7FCFDD20A1F09091D9018C2D93
:10352000892B911003C00E94FA0FB0CFE1E09E12E8
:10353000FACF22FDABCF981709F4A8CF8093D90119
:10354000A5CF911006C00E948E0C8C2D0E94F30F07
:103550009DCFF1E09F1609F499CFF5CFDD2031F032
:1035600025E0291508F492CF8C2DDDCF34E03915F4
:1035700008F48CCFEACF992041F3F9E38F1295C17B
:103580002FEF37EE83E0215030408040E1F700C05C
:1035900000008BC1812F86958695837061F0813004
:1035A00009F074CFC8019370D11002C090E080E0A0
:1035B0000E94A5086BCFC8019370D11002C090E0A3
:1035C00080E00E94BB0862CF802FDD2029F00E949E
:1035D000500A0E943A125ACF0E949509FACF812FC1
:1035E000837009F066C0D11051CF802F82958695E7
:1035F0008770880F880F602F6F70462E512C712CAA
:10360000612C082E04C0440C551C661C771C0A94BF
:10361000D2F740E050E0BA0104FF0FC04FE050E0A5
:1036200060E070E004C0440F551F661F771F8A9545
:10363000D2F74095509560957095812F8695869527
:103640008370823019F1D8F40091DA011091DB0116
:103650002091DC013091DD01813069F04429552948
:1036600066297729CB01BA01602371238223932332
:103670000E9403130BCF402A512A622A732ACB01DE
:10368000BA016429752986299729F2CF4429552939
:10369000662977290091DA011091DB012091DC0184
:1036A0003091DD01CB01BA01602771278227932772
:1036B000DFCF8695DD2011F0812F8170882309F4FA
:1036C000E5CE802F829586958770880F880F602FB2
:1036D0006F70462E512C712C612C082E04C0440CA6
:1036E000551C661C771C0A94D2F740E050E0BA01E2
:1036F00004FF0FC04FE050E060E070E004C0440FF2
:10370000551F661F771F8A95D2F740955095609593
:103710007095812F869586958370823019F1D8F443
:103720000091310210913202209133023091340223
:10373000813069F04429552966297729CB01BA01DE
:1037400060237123822393230E947C129FCE402A00
:10375000512A622A732ACB01BA0164297529862964
:103760009729F2CF442955296629772900913102FA
:10377000109132022091330230913402CB01BA0110
:103780006027712782279327DFCF1F70DD2029F064
:10379000812F0E94E212802FC6CE802F0E94F30F4D
:1037A000812F0E94861272CE802F92EF891609F423
:1037B0003FC0981570F0E0EF8E16D1F0F1EF8F1644
:1037C00091F0DD2009F46CC0911011CE812F8F7122
:1037D00033C023EF821699F134EF8312F2CF809138
:1037E000EA0182FF3FC0812F8F71DD20D1F224C01A
:1037F000DD20C9F084E0891508F448CE1F7161E02E
:1038000070E080E090E004C0660F771F881F991F6A
:103810001A95D2F7009131021091320220913302B1
:1038200030913402ADCF95E0991508F42FCEE6CF54
:10383000812F8F71D110B5CF0E94E21227CE60E0A8
:1038400070E0CB01DD2009F47FCF1F7161E070E0F3
:1038500080E090E004C0660F771F881F991F1A95BB
:10386000D2F772CFDD2089F01F71812F0E94E21202
:103870008091EA0182FD07C0E8E01E9FC00111248B
:1038800083608093CF01812FD7CF81E00E94A9125E
:10389000F1E0F91508F0FACD82E00E94A912F6CD08
:1038A000992039F0893309F46BCE802F0E941816C5
:1038B000EDCD812F8F7175CF85E0DE0111960190DE
:1038C0000D928A95E1F7F701228189819A81211170
:1038D0003BCB0E945D0D082F3FCB06311C4551F5B7
:1038E00080917801811151CD89E20E949B0C5FCCBF
:1038F0000B352DE5120709F457CD58F401158CE569
:10390000180709F444CD0F3D1C45A1F40E94B710DF
:10391000F5CB0C35EDE51E0709F448CD0D351D45F9
:1039200049F48091EA0182FB882780F991E0892798
:103930000E94C512F701828110810181882309F458
:1039400037CD812F902F0E94EB0CD82E682F812F1E
:10395000902F0E94850DE12FF0E02CE0029FE00DFA
:10396000F11D112430E3D39EE00DF11D1124EE0F63
:10397000FF1FEF55FA4F859194910E94060B8C0121
:10398000882EF701D280958092945FE095228091F5
:10399000CF018770C1F0BD2CDD20B1F0812F807F79
:1039A000803421F080E2800F883068F08091EA0155
:1039B00082FD09C082E00E94A9128091CF01877028
:1039C000BB24B3948111B12CA12EA2943FE0A32279
:1039D000FBE0FA1508F45ACDEA2DF0E0EE54F74D6D
:1039E0000C9426281F93CF93DF9380919C01807FB6
:1039F000A9F480919901882389F08091CE01D0911A
:103A00009D016091970170919801A0919A01B091E8
:103A10009B01C62FC72316E0D81304C0DF91CF91B6
:103A20001F91089590E0109711F0CF3F19F401967F
:103A30008770F2CF189F9001199F300D1124F90162
:103A4000E256FE4F41814713F2CF40814613EFCF3C
:103A500042814111ECCF438154814A1B5B0B483CAE
:103A6000510528F780919C018F70806180939C01A3
:103A7000F901ED55FE4F80818F708061808387E969
:103A800091E00E946C17DF91CF911F910C94E10C93
:103A90008F929F92AF92BF92CF92DF92EF92FF925E
:103AA0000F931F93CF93DF93CDB7DEB761970FB618
:103AB000F894DEBF0FBECDBF8C0185E0F801DE01BA
:103AC0001D9601900D928A95E1F7D8011296EC901F
:103AD000129787E9882E81E0982E40919A015091A3
:103AE0009B014115510509F43EC190919701209128
:103AF0009801892F82238F3F09F435C1DC901196FC
:103B0000CC9011971396AD90BC901497F0909901BA
:103B1000F501E41BF50BFF2009F4F9C080919C012D
:103B2000382F307FE83CF10508F0C5C0311185C061
:103B3000FE2C2C1124C09D1122C0E11020C08F70DA
:103B4000806180939C01C4010E946C1780919C014C
:103B5000D80115968C938F2D61960FB6F894DEBF21
:103B60000FBECDBFDF91CF911F910F91FF90EF90CE
:103B7000DF90CF90BF90AF909F908F900895A11449
:103B8000B10429F08D2D8C218F3F09F00AC180E00E
:103B900080FF14C04E2D6C2D8D2D0E94C10C8823EA
:103BA00069F087E991E00E946C1786E0E7E9F1E0AF
:103BB000DF011D928A95E9F7F12CCDCFAB2829F0D2
:103BC0008D2D8C218F3F09F0E9C080E0B82FB170B6
:103BD000AB2E80FF29C04E2D6C2D8D2D0E94C10C67
:103BE000B82E811121C0DD86CE868D859E850E94EE
:103BF000420D292F22952F70223050F0243078F476
:103C00009F7051F0F8019581907F31F4FB2CA3CF88
:103C10009F7011F08823D1F3805E8830B8F3C8011B
:103C20000E946C17BA2CF2CFEE2009F494CF809149
:103C30009C01816080939C01BFCF2C1112C09D110B
:103C400010C0E1100EC015968C93C8010E946C172D
:103C500086E0F801A7E9B1E001900D928A95E1F7BD
:103C60007ACFC8010E94B10D882309F1EE20F9F046
:103C700080919C01803270F02091970130919801E1
:103C800038872F831986BB86AA868C87CE01079634
:103C90000E946C1786E0F801A7E9B1E001900D924F
:103CA0008A95E1F70E94F21CFF24F39454CFC801D7
:103CB0000E946C17F9CF332309F473CF2C110FC076
:103CC0009D110DC0E1100BC0F8018583C8010E9451
:103CD0006C1786E0D4011D928A95E9F73CCFC801A4
:103CE0000E94B10D882319F3EE2009F380919C0105
:103CF000803280F220919701309198013A83298394
:103D00001B82BD82AC828E83CE010196C1CFE83C7E
:103D1000F105F8F6FE2CEE2051F22C1116C09D1183
:103D200014C080919C0180FD93CF982F907F09F45F
:103D30008FCFF8018583903F09F487CF982F907F2C
:103D4000905F8F70892B858380CFC8010E94B10D51
:103D50008111A0CF80919C01816080939C01C8015A
:103D60000E946C17F8CEEE2009F4A1CFC8010E9482
:103D7000B10DF82E882309F49ACF86E0F801A7E95F
:103D8000B1E001900D928A95E1F7809197019091B1
:103D900098010E94420D0E94F21CDDCE81E08E252A
:103DA00015CF81E08E25F4CE1F93CF93DF93CDB74F
:103DB000DEB767970FB6F894DEBF0FBECDBF4B8B53
:103DC0005C8B6D8B7E8B8F8B61111092D8011A8A60
:103DD000198A85E0FE017396DE011D9601900D9211
:103DE0008A95E1F786E0FE013D96DE011796019087
:103DF0000D928A95E1F7CE0107960E94481D88230F
:103E000089F016E08091CE0190919D01891349C0FF
:103E100067960FB6F894DEBF0FBECDBFDF91CF918E
:103E20001F91089586E0FE013796DE0111960190FC
:103E30000D928A95E1F78A859B85892B11F38F81F5
:103E4000988589238F3FE9F220919D0130E0C901D7
:103E50000196877099274091CE014817190671F491
:103E60000E940D1310929D011092CE0186E0E7E9A9
:103E7000F1E0DF011D928A95E9F7C3CF96E0929FAA
:103E8000D001939FB00D1124A256BE4FFE01319672
:103E900001900D929A95E1F780939D010E94E10CAB
:103EA000B0CF819FC001112482569E4F0E94481DB1
:103EB000882309F4ADCF8091CE0190E00196877000
:103EC00099278093CE019ECF4F925F926F927F92FF
:103ED0008F929F92AF92BF92CF92DF92EF92FF921A
:103EE0000F931F93CF93DF93CDB7DEB728970FB60D
:103EF000F894DEBF0FBECDBF8E010F5F1F4F88E06D
:103F0000F80111928A95E9F794E5E92E91E0F92EEE
:103F1000680128E5422E21E0522E66246394712C1C
:103F200044E6842E41E0942EF70181917F018F3F7A
:103F300009F445C0F894E82FE295EF70F0E021A174
:103F40008F70A30102C0440F551F8A95E2F7CA0182
:103F5000922F982B91A392A18095892382A3789484
:103F600000C0E8E5F1E021E030E0B12CA12C419166
:103F70004F3F09F476C0A42FA295AF70B0E09096A1
:103F80008C9190E04F7002C0959587954A95E2F725
:103F900080FD67C0C901A82AB92A220F331F8E16D7
:103FA0009F0629F7F701319780818F3F11F00E941A
:103FB000AC0A50EA5A95F1F7F601B182A082F2E01C
:103FC000CF0ED11C4E145F0409F0AECF48E050E094
:103FD000B80181EE91E00E945728FF24F3940097E6
:103FE00009F4F12C892B09F43FC088E0F801A1EE17
:103FF000B1E001900D928A95E1F781E08093E001B4
:104000000E942E129093DF018093DE018091DE01E9
:104010009091DF010E941F12059750F18091E101FC
:104020009091E20190933702809336028091E301F0
:104030009091E40190933902809338028091E501D8
:104040009091E60190933B0280933A028091E701C0
:104050009091E80190933D0280933C021092E00120
:1040600007C090E080E097CF8091E0018111CECF32
:104070008F2D28960FB6F894DEBF0FBECDBFDF910F
:10408000CF911F910F91FF90EF90DF90CF90BF9055
:10409000AF909F908F907F906F905F904F9008951A
:1040A0001F921FB61F9211248F939F93AF93BF93BC
:1040B00080918402811113C08091850290918602C3
:1040C000A0918702B09188024196A11DB11D8093F5
:1040D000850290938602A0938702B0938802BF91D5
:1040E000AF919F918F911F901FBE1F901895CDB7D4
:1040F000DEB763970FB6F894DEBF0FBECDBF84B7AF
:10410000877F84BF0FB6F894A8958091600088617E
:1041100080936000109260000FBE80E890E00FB6C0
:10412000F89480936100909361000FBE85B780681A
:1041300085BF85B7806885BF8AEA9AE090936D0154
:1041400080936C010E940B070E94D6078091E200C9
:1041500084608093E2007894809199028823A1F092
:104160001091E9001F709091EC00892F817090FDF3
:1041700080E8182B1092E9008091E80083FD0E94EE
:1041800018131F701093E90082E084BD93E095BD81
:104190009AEF97BD80936E0085E30E94AC0A84E39A
:1041A0000E94AC0A86EC0E94AC0A87E90E94AC0A25
:1041B00008E511E064E6E62E61E0F62ED8018D9167
:1041C0008D018F3F11F00E94AC0AE016F106B1F7A5
:1041D00088E0E6E3F2E0DF01282F1D922A95E9F757
:1041E000E1EEF1E0DF011D928A95E9F790E080E0D1
:1041F0000E946C28893E9E4F11F00E94B71082E009
:1042000090E00E9464288093EB010E94A910909393
:10421000EA018093E9010E94641FEFE3FCE9319712
:10422000F1F700C000000E94641F8091360280FFF9
:1042300008C06FEF7FEF90E080E00E9490280E941E
:10424000851083E090E00E946428682F70E090E081
:1042500080E00E94031382E08093680280E88093EC
:10426000A6020E94AA266DE070E084ED96E00E940E
:104270005C0E892B59F58091680263E070E081FD46
:104280003DC381ED96E00E945C0E892BF9F46DE050
:1042900070E081EC96E00E945C0E892BB9F40E94DC
:1042A0009908605A75418F4F9F4F609378027093C1
:1042B000790280937A0290937B020E94CF0E81E074
:1042C00080937D0280937C021092690280E091E0ED
:1042D00090938102809380028091990200E112E123
:1042E000853009F44AC30E94641F898B81110E94A2
:1042F000990856E3A52E52E0B52EECEEF1E0D5017B
:1043000010E000E0702F8D919D912191319128173F
:10431000390709F442C32827392760E0EE24E394E3
:10432000F12CA9014E215F21452B09F430C36F8385
:1043300078879C012E213F2191E0232B09F490E006
:1043400099870E942E128160782F9B878A874F81E0
:10435000588569858B850E94D41E000F111FF801B6
:10436000E451FE4F80819181E826F926F182E082B6
:104370004090FF0150900002052C000C6608770861
:1043800080910C0190E0EFEFF1E021E030E0329617
:10439000821793070CF018C38091FB019091FC01E8
:1043A000A091FD01B091FE016FB7F894C090850215
:1043B000D0908602E0908702F09088026FBFC81A02
:1043C000D90AEA0AFB0A10910C0199ECC916D1042A
:1043D000E104F10414F18091FA0190E0019669E1A1
:1043E00070E00E94D1278093FA01880F991FFC0189
:1043F000E150FE4F11821082812F183108F087E1C1
:104400008F5F80930C010E9499086093FB01709369
:10441000FC018093FD019093FE01A2E04A16510435
:10442000610471040CF4DDC2A0E6BAEEA3019201AE
:104430000E942C282B013C01B8EC1B9F90011124F9
:10444000032E000C440B550B2C0D3D1D4E1D5F1D06
:10445000A5E0B0E00E942C289B01AC01C301B20191
:104460000E94E52769017A01E1EFCE16D104E1044B
:10447000F1042CF040EFC42ED12CE12CF12C8091D2
:10448000F6019091F701A091F801B091F9012FB7D1
:10449000F894409085025090860260908702709058
:1044A00088022FBF481A590A6A0A7B0AF5E64F1696
:1044B00051046104710484F00E9499086093F6012C
:1044C0007093F7018093F8019093F901809146026F
:1044D0008093F501C092F4011091F501A091F401CF
:1044E000A11BBB0BA30192010E94372824E630E0F8
:1044F00040E050E00E940728120F1093460280917E
:104500007D02882309F424C160E080E00E947E09D6
:1045100080914702813009F471C260E081E00E941D
:104520007E0980EF96E00E94920F80913102909177
:104530003202A0913302B0913402AD016627772791
:1045400010E0411551056105710519F0DB01CA0143
:1045500010E1492F5A2F6B2F77274115510561051F
:10456000710519F0185FDB01CA01AC01BD0104E05F
:1045700076956795579547950A95D1F74115510559
:104580006105710519F01C5FDB01CA01AC01BD01B9
:10459000F2E07695679557954795FA95D1F74115CD
:1045A00051056105710519F01E5FDB01CA01B69561
:1045B000A79597958795892B8A2B8B2B09F01F5FE1
:1045C00060E086E00E947E0923E0129FC001112472
:1045D0008C51994F0E94920F61E086E00E947E0903
:1045E00081EE96E00E94920F10913502812F827227
:1045F0006EE277E011F466E277E090E080E00E94FE
:10460000A00F812F81716EE177E011F466E177E010
:1046100083E090E00E94A00F812F84746EE077E029
:1046200011F466E077E086E090E00E94A00F187831
:104630006EEF76E011F466EF76E089E090E00E949C
:10464000A00F6DE0762E88248394912C5DEF552E7B
:10465000570CF12CE12C14E5D5012D913C91C401AE
:104660000E2C02C0880F991F0A94E2F7822393232D
:1046700066246394892B09F4612CC12E13E01C0D70
:104680001C11B3C1BFEFEB1AFB0A183729F7E2E0A0
:10469000AE0EB11CF3E07F0E29E17212D7CF01E01C
:1046A00024E049E764E083E50E94190927E149E72E
:1046B00067E183E50E94190927E142E565E082E5AB
:1046C0000E94190927E149E765E089E70E94190975
:1046D00015E501E029E0412F66E0812F0E941909CC
:1046E0001E5F1F36B1F701E029E0412F66E0812F00
:1046F0000E9419091F5F1737B1F780917D02882347
:1047000071F02091A7023091A8022115310539F0EE
:104710008091690261E070E0882309F420C28091F1
:104720007C028823A9F00E949908009178021091D8
:10473000790220917A0230917B02601B710B820B0F
:10474000930B6F3F7F4F8F4F9F4710F40E948C0E4B
:10475000298921110E94A70E86E0E2E7F2E0DE013E
:10476000119601900D928A95E1F7F0907402E09015
:1047700075021091760200917702109274021092E5
:10478000750210927602109277028F2D8E2909F40D
:1047900048C080917002909171020E941F129C018A
:1047A00090916C02992309F4D0C225313105C8F1EA
:1047B0009F3F19F09F5F90936C02FF2059F00E9479
:1047C000300A9FEF1F140CF491E0899F802D112473
:1047D00080937402EE2059F00E94300A9FEF1E145D
:1047E0000CF491E0899F802D112480937502309103
:1047F00074023323B1F020917502222391F045EB2E
:104800003403C0011124992309F474C290937402F3
:1048100045EB240390011124332309F46FC2309334
:104820007502812F802B09F448C080916E0290910F
:104830006F020E941F129C0190916B02992309F450
:104840007FC221353105C8F19F3F19F09F5F9093DA
:104850006B02112359F00E940E0A9FEF11160CF4FF
:1048600091E0899F802D112480937602002359F0D6
:104870000E940E0A9FEF10160CF491E0899F802D84
:10488000112480937702309176023323B1F0209186
:104890007702222391F045EB3403C00111249923C0
:1048A00009F430C29093760245EB24039001112461
:1048B000332309F42BC230937702809174029091D4
:1048C0007502892B90917602892B90917702892B22
:1048D00011F00E943A1286E0FE013196A2E7B2E0A2
:1048E00001900D928A95E1F70E94D10890916A0299
:1048F000891709F4F1CC80936A02EECC8EEC96E035
:10490000C2CC80919902843031F10E948C0E1092B9
:10491000840288E190E0A0E40FB6F894A895809313
:1049200060000FBEA093600083B7817F846083BF67
:1049300083B7816083BF7894889583B78E7F83BF68
:104940000FB6F894A895809160008861809360000C
:10495000109260000FBE80919802882371F00E942F
:10496000641FE6E3F2E081919191892B09F0D2C1B5
:104970008EE392E08E179F07B1F780919902853000
:1049800009F4BFCF0E940D130E94D108ACCC6F5F19
:10499000EE0CFF1C6C3009F0C4CC0F5F1F4F0430CD
:1049A000110509F0AFCC8FEF8C878D871E860E9492
:1049B0002E128160782F988B8F874C855D856E8550
:1049C00088890E94D41ED4CC40815181052E000CD0
:1049D000660B770B440E551E661E771E2F5F3F4FEA
:1049E000D6CCC12CD12C76014ACD062D272D4C2DAD
:1049F000652D8C2D0E941909C39442CE112309F410
:104A000064C00E94A70E40914202509143026091FF
:104A10004402709145022FB7F894809185029091DD
:104A20008602A0918702B09188022FBF841B950B4C
:104A3000A60BB70B893C9105A105B10560F00E945A
:104A400099086093420270934302809344029093CA
:104A500045020E94350E0E94990860933E027093B1
:104A60003F02809340029093410260E080E00E9408
:104A70007E09209146021C823AE0822F632F0E9419
:104A8000C527905D9B830E94C527905D9A83822FE6
:104A900064E60E94C527805D898386E397E00E94D3
:104AA000920FFE013196DF010D900020E9F7CD0154
:104AB00001977C018F010E151F0508F01ECED8014D
:104AC0008D918D010E94E40EF6CF40913E025091EF
:104AD0003F0260914002709141022FB7F89480919B
:104AE000850290918602A0918702B09188022FBF23
:104AF000841B950BA60BB70B81369A4EA105B10509
:104B000018F00E948C0EB1CF4091420250914302A6
:104B100060914402709145022FB7F894809185020C
:104B200090918602A0918702B09188022FBF841BCA
:104B3000950BA60BB70B893C9105A105B10508F4AF
:104B400094CF0E949908609342027093430280932D
:104B50004402909345020E94350E87CF8F5F082F45
:104B600010E07B01082E02C0EE0CFF1C0A94E2F755
:104B7000A9014E215F21452B89F39091680290FD98
:104B800043C08295880F807680930F0198013695F7
:104B900027953695279520931201815E8093100109
:104BA0001092130124E630E047E050E06DE071E040
:104BB00088E70E945927892B09F0B1CDA80125E08B
:104BC000440F551F2A95E1F78091680280FD2AC0A5
:104BD00047555D4F04E610E020E230E060E488E7EE
:104BE0000E948027892B09F09ACD0E94A70EE0949D
:104BF000F0948091A7029091A802E822F922F09205
:104C0000A802E092A7028BCD880F880F880F8093AF
:104C10000F0110921201895F8093100183E080934D
:104C20001301C0CFE8E4F2E080E2DF011D928A9533
:104C3000E9F7E8E6F1E0FB8BEA8B04E611E08CE6AD
:104C4000282E81E0382E97E0992E88248394AA8913
:104C5000BB892D91BB8BAA8BF80141908F01440E2B
:104C6000552E511CC20187559D4F2C01E22FF0E0BB
:104C7000E85BFD4F30E020E0692C621AC82C022E60
:104C800001C0CC0C0A94EAF7520190E0D5018D9155
:104C90005D018C21662D691B6770762E062E000C37
:104CA000770BB82F01C0BB0F7A94EAF77B2E719572
:104CB000619571096770772701C086956A95EAF753
:104CC000782A8081782A70829F5F9830F9F62F5F6A
:104CD0003F4F31962830310579F6EA89FB892E1647
:104CE0003F0609F0B4CF04E610E020E230E048E4EB
:104CF00052E074CF81E0809374028ACD81E080938A
:104D000075028FCD81E080937602CECD81E08093D5
:104D10007702D3CD09BD19BD09B400FEFDCF809146
:104D2000D8008F7D8093D8008091E00082608093CE
:104D3000E0008091E00081FDFCCF0E940D131DCEAC
:104D40002B30310508F082CDB8CD2B30310508F07D
:104D500031CD67CD1092B9008CE08093B8000895F2
:104D60009F92AF92BF92CF92DF92EF92FF920F93FA
:104D70001F93CF93DF93B82EEB010E942E126C018C
:104D8000EE24E394F12CC431D10560F025E0E22E4D
:104D9000F12CCF3FDC0731F0CE0164E170E00E94DE
:104DA000B1277B0184EAA82E94E8992E1092BC00CA
:104DB000A092BC000E942E128C018091BC0087FF43
:104DC0000DC08091B900887F883039F18091B90099
:104DD000887F803111F10FEF1FEF09C00E942E1262
:104DE000801B910B8E159F0540F30EEF1FEFCF3FF9
:104DF000DC07E1F2C6010E941F128C179D07B0F27A
:104E0000C801DF91CF911F910F91FF90EF90DF903C
:104E1000CF90BF90AF909F900895B092BB009092BA
:104E2000BC000E942E128C018091BC0087FF0AC03A
:104E30008091B900887F883111F0803461F610E0EC
:104E400000E0DECF0E942E12801B910B8E159F0575
:104E500058F3CBCF0F931F93CF93DF93EB01809346
:104E6000BB0084E88093BC000E942E128C018091CC
:104E7000BC0087FF11C02091B900287F81E090E03D
:104E8000283211F490E080E0919581959109DF91AD
:104E9000CF911F910F910895CF3FDC0741F30E94FE
:104EA0002E12801B910B8C179D0708F38EEF9FEF3E
:104EB000EECFCF92DF92EF92FF920F931F93CF939B
:104EC000DF936B018A017901B9010E94B026E601E6
:104ED0000C0D1D1DC017D10761F424E92093BC00FF
:104EE000DF91CF911F910F91FF90EF90DF90CF90C6
:104EF000089597FDF2CFB70189910E942A27EACF42
:104F0000CF92DF92EF92FF920F931F93CF93DF9395
:104F1000C62F6A017901B8010E94B02697FD0CC026
:104F2000B8018C2F0E942A27E601EC0CFD1CCE153F
:104F3000DF0511F097FF0CC024E92093BC00DF913E
:104F4000CF911F910F91FF90EF90DF90CF90089538
:104F5000B80189910E942A27EACF84E98093BC0096
:104F60000895AA1BBB1B51E107C0AA1FBB1FA617B0
:104F7000B70710F0A61BB70B881F991F5A95A9F702
:104F800080959095BC01CD010895991B79E004C0EE
:104F9000991F961708F0961B881F7A95C9F7809578
:104FA000089597FB072E16F4009407D077FD09D0DB
:104FB0000E94B12707FC05D03EF4909581959F4F44
:104FC0000895709561957F4F0895A1E21A2EAA1B4E
:104FD000BB1BFD010DC0AA1FBB1FEE1FFF1FA217A9
:104FE000B307E407F50720F0A21BB30BE40BF50BA6
:104FF000661F771F881F991F1A9469F7609570952F
:10500000809590959B01AC01BD01CF010895052EBF
:1050100097FB1EF400940E941E2857FD07D00E94A3
:10502000E52707FC03D04EF40C941E2850954095BC
:10503000309521953F4F4F4F5F4F08959095809544
:10504000709561957F4F8F4F9F4F0895EE0FFF1F13
:105050000590F491E02D09940E943F28A59F900DA2
:10506000B49F900DA49F800D911D11240895B7FF4A
:105070000C942C280E942C28821B930B0895A29F2D
:10508000B001B39FC001A39F700D811D1124911D1C
:10509000B29F700D811D1124911D0895FB01DC014B
:1050A00002C005900D9241505040D8F70895FB0181
:1050B000DC0104C08D910190801921F441505040D1
:1050C000C8F7881B990B0895F999FECF92BD81BD51
:1050D000F89A992780B50895A8E1B0E042E050E041
:1050E0000C949828262FF999FECF92BD81BDF89A8D
:1050F000019700B4021639F01FBA20BD0FB6F8941C
:10510000FA9AF99A0FBE08950396272F0E947328E2
:105110000E947228252F0E947328242F0C94732834
:105120000196272F0E9473280C947228DC01CB0172
:10513000FC01F999FECF06C0F2BDE1BDF89A3196A7
:1051400000B40D9241505040B8F70895F894FFCF45
:10515000FC132414BC152414BC1557147814BC1566
:1051600075158215DE19DE19171A171ACA1AE41AEC
:0C517000461A461AEF1AC51BD41BD41BAC
:10517C0096085810371033102F1095080100210095
:10518C007F22000301A502A50200025701AC000F0B
:10519C00045A03818283E200E900EA00B500B600FC
:1051AC00B700CD008301CC008A0192019401210249
:1051BC00230224022502260227022A02B300B4008D
:1051CC006F0070003534C697669493923632333143
:0C51DC00F7F6F5F4000810181810080091
:00000001FF
